:100000000C9447000C9464000C9464000C946400FD
:100010000C9464000C9464000C9464000C946400D0
:100020000C9464000C9464000C9464000C945902C9
:100030000C9464000C9464000C9464000C946400B0
:100040000C9464000C9464000C940D020C94A001B8
:100050000C94F3010C9464000C9464000C94640000
:100060000C9464000C9464003F065B4F666D7D0742
:100070007F6F4077763F1F767938383F010204085A
:100080001020403879786D0050105E79730011248B
:100090001FBECFEFD8E0DEBFCDBF11E0A0E0B1E0E2
:1000A000E2E0F2E102C005900D92A432B107D9F767
:1000B00022E0A4E2B1E001C01D92A431B207E1F751
:1000C0000E94B7020C94FF080C9400005C9A5A9AA4
:1000D000419A2A9A5F9A5D9A5E9A089580932B01BD
:1000E000E82FF0E0E859FF4FE491E095E0FF5C98DD
:1000F000E0FD5C9AE1FF5A98E1FD5A9AE2FF4198CF
:10010000E2FD419AE3FF2A98E3FD2A9AE4FF5F9813
:10011000E4FD5F9AE5FF5D98E5FD5D9AE6FF5E9878
:10012000E6FD5E9A0895AF92BF92CF92DF92EF9272
:10013000FF920F931F93CF93DF93CDB7DEB72A972C
:100140000FB6F894DEBF0FBECDBFFC01228129831C
:10015000408151818A010D7FCE0102960130110547
:1001600031F483818A8384818B83CE01049642504B
:1001700051094230510520F43581DC013C93019650
:100180005C01BFEFAB1ABB0A3681DC013C93423005
:10019000510508F062C08581823058F0650170E039
:1001A00060E08150990B681779070CF44AC0A80EDB
:1001B000B91EB5016F5F7F4F922F0130110521F4F9
:1001C0009481920F8381980F930F4230510508F06C
:1001D00068C02581920F50E040E02150330B421758
:1001E00053070CF454C09187F50190839E012F5F53
:1001F0003F4F621BF90148EA51E08E2F821B8617A0
:1002000008F462C08091C10085FD0AC08091C100E0
:100210008F7E8093C1008091C10080628093C10075
:100220002A960FB6F894DEBF0FBECDBFDF91CF91F7
:100230001F910F91FF90EF90DF90CF90BF90AF9004
:100240000895E780F084E60EF71ED701FC90D601F2
:10025000FD926D016F5F7F4FA6CF822F8F7382302B
:1002600008F4A7CF650170E060E08150990B681732
:1002700079070CF09CCFE780F084E60EF71ED701DB
:10028000FC90D601FD926D016F5F7F4FF0CF07812B
:100290001085040F151FD8018C91980F4F5F5F4F89
:1002A0009ECF2F7350E040E02150330B421753078D
:1002B0000CF099CF07811085040F151FD8018C9180
:1002C000980F4F5F5F4FF2CF80910E0290910F0217
:1002D0008436910519F1A0911002B091110280812C
:1002E0008C938091100290911102019690931102CB
:1002F00080931002A0910C02B0910D028A179B0707
:1003000021F4509311024093100280910E029091BB
:100310000F02019690930F0280930E0231966DCFDB
:1003200043E050E062E070E086E291E00C948B07DD
:1003300042E050E060E070E089E291E00C948B07CD
:100340001F920F920FB60F9211242F934F935F932A
:100350008F939F93EF93FF93F89480910E02909167
:100360000F02892BB9F48091C1008F7D8093C10069
:100370008091C10080648093C1007894FF91EF91D7
:100380009F918F915F914F912F910F900FBE0F9082
:100390001F901895E0911202F091130220818FEFC7
:1003A0008083809112029091130201969093130220
:1003B0008093120240910C0250910D028417950710
:1003C00031F488EA91E090931302809312028091B5
:1003D0000E0290910F02019790930F0280930E02EC
:1003E0002093C600CACF1F920F920FB60F9211240E
:1003F0008F93EF93FF93F894E1ECF0E080818F7B93
:1004000080838081806180837894FF91EF918F91C8
:100410000F900FBE0F901F9018951F920F920FB65E
:100420000F9211242F933F938F939F93EF93FF93FA
:10043000F8948091C6002091A2013091A301243646
:10044000310521F1E091A401F091A5018083809113
:10045000A4019091A50101969093A5018093A40118
:100460002091A0013091A1018217930731F48CE310
:1004700091E09093A5018093A4018091A2019091B5
:10048000A30101969093A3018093A20182E090E0E2
:100490009093330180933201429A7894FF91EF91C7
:1004A0009F918F913F912F910F900FBE0F901F90B2
:1004B00018951F920F920FB60F9211242F933F930E
:1004C0004F935F936F937F938F939F93AF93BF935C
:1004D000EF93FF93A89590E080E0FC01EE0FFF1FE3
:1004E000E25DFE4F208131811216130634F4208123
:1004F0003181215031093183208301968730910564
:1005000061F780912D01882369F1809134019091E8
:100510003501892B99F48AE090E09093350180931E
:10052000340180912C018823D1F080912B010E940D
:100530006E0080912C01809580932C01FF91EF91AA
:10054000BF91AF919F918F917F916F915F914F91EB
:100550003F912F910F900FBE0F901F9018950E9402
:100560006600E7CF80912B010E946E00E7CFCF930A
:10057000DF93CDB7DEB7CD56D1090FB6F894DEBF05
:100580000FBECDBF8AE0AA968FAFAA97AB968FAF6A
:10059000AB976E0125E6C20ED11CD60111961C92B6
:1005A0001E9280ED97E0A9969FAF8EAFA99781E04C
:1005B000AC968FAFAC97AE968FAFAE970FB6F89460
:1005C000A89580916000886180936000109260001F
:1005D0000FBE549A529A399A229A579A559A569A15
:1005E0003A9A0E946600429A1BE1812F0E946E0097
:1005F000BFEFE1EEF4E0B150E040F040E1F700C0C1
:1006000000000E9466002FEF81EE94E021508040B0
:100610009040E1F700C000001F5F143231F7AFEFE8
:10062000B3ECE9E0A150B040E040E1F700C00000C9
:1006300010E0812F0E946E00FFEF20E782E0F15072
:1006400020408040E1F700C000001F5F173089F7AD
:1006500016E0812F0E946E009FEFA0E7B2E091505C
:10066000A040B040E1F700C00000115091F780E0D9
:100670000E946E00EFEFF0E722E0E150F0402040F2
:10068000E1F700C000008AE00E946E0010922F0186
:1006900010922E011092310110923001109233010C
:1006A00010923201109235011092340110923701EC
:1006B00010923601109239011092380110923B01CC
:1006C00010923A018091810088608093810080912E
:1006D00081008560809381008DE490E09093890093
:1006E0008093880080916F00826080936F0042E069
:1006F00050E060E070E089E291E00E947B07809129
:100700002901823020F0109229010E9498018091E5
:100710002901AD968FAFAD9780912A01823028F0E4
:1007200081E080932A010E94980180912A01AE966F
:100730008FAFAE975098589A88EC90E0909337011D
:100740008093360189B1982F9170F92E80FFECC00B
:10075000F8948FE28093C4001092C5008091C2008B
:1007600086608093C2008091C10080688093C10040
:100770008CE391E020EA31E03093A1012093A001C5
:100780001092A3011092A2019093A5018093A4015D
:100790009093A7018093A601FC018FEF8193A1E0C4
:1007A000E03AFA07D9F788EA91E02CE032E030939A
:1007B0000D0220930C0210920F0210920E029093E1
:1007C0001102809310029093130280931202FC0195
:1007D000C9011FEF11938E179F07E1F743E050E027
:1007E00062E070E086E291E00E947B078091260142
:1007F00090912701019641F4109227011092260151
:10080000109328010E949001809128018111A3C0BA
:1008100084E280932B01E12C88EEA82E83E0B82E91
:1008200094E1492E512C2CE3622E21E0722E34E605
:10083000832E912CFF2039F0E11005C0B0923B01CE
:10084000A0923A01EF2C80913A0190913B01892BC3
:1008500069F4EE2059F010922701109226018FEFD3
:10086000809328010E949001E12CF12CAD96EFAD10
:10087000AD9780912401909125018130910509F473
:10088000B9C008F46AC0029709F4BFC0AE968FAD34
:10089000AE978130B9F0AE968FADAE97811106C09C
:1008A0008091240190912501019761F0AE968FAD62
:1008B000AE978111BBC280912401909125010297CE
:1008C00009F0B4C250923101409230018091C100D0
:1008D00084FFFCCF8091300190913101892B31F060
:1008E0008091320190913301892BA1F380913001E5
:1008F00090913101892B09F0D7C0AC968FADAC97A0
:10090000833008F0ABC0AC968FADAC978F5FAC96E0
:100910008FAFAC97BFEFE1EEF4E0B150E040F040B4
:10092000E1F700C0000086CF789480913601909165
:100930003701892B09F006CF84E280932B011092B6
:10094000280110922701109226010E94900181E057
:1009500080932D01FFCFF12C5ECF27E0E29FF001C5
:100960001124EB5EFE4F808180930E01F8940FB648
:10097000F894A8958091600088618093600010923F
:1009800060000FBE8091C1008F7E8093C100809176
:10099000C100877F8093C100519A599A8FEF93ECE1
:1009A000A9E081509040A040E1F700C000005998B4
:1009B000EFE4F3EC3197F1F700C00000599A8FE4AF
:1009C00093EC0197F1F700C000008091C1008860AE
:1009D0008093C100789488E19CE00FB6F894A895C4
:1009E000809360000FBE909360008BE091E00E94C6
:1009F00093004CCF97E0E99FF0011124EB5EFE4F8E
:100A0000808180930401818124C08E2F90E0A7E033
:100A1000EA9FF0011124EB5EFE4F318124813217F1
:100A2000D1F02091260130912701232B21F4209130
:100A30002801211110C027E0289FF001299FF00D07
:100A40001124EB5EFE4F9181809100019813DBCF62
:100A500084818093000181E091E0C9CF10922D0143
:100A600084E2F11001C08AE080932B014298AE9697
:100A70008FADAE97813049F4AE961FAEAE9710920F
:100A800025011092240181E042CFAD968FADAD9744
:100A900090E0019681709927AD968FAFAD9781E078
:100AA000AE968FAFAE97EBCF80913201909133012C
:100AB000892BD1F7FE013196DF018F018FEF8D93E6
:100AC000CA16DB06E1F790E080E033243A942091E7
:100AD000A2013091A3012115310509F557E041919B
:100AE000407B09F4BAC1C9010196403881F44081C4
:100AF000413F69F4AD96AFADAD975A9FD001112437
:100B0000AB5EBE4F4C916181641709F4A6C19C0194
:100B10008236910521F780E180932B018BCE2091C5
:100B2000A6013091A701D9014C91DF01A80FB91F8F
:100B30004C93D9013C922091A6013091A7012F5FDF
:100B40003F4F3093A7012093A6014091A0015091FF
:100B5000A1012417350721F47092A7016092A60124
:100B60002091A2013091A301215031093093A301BA
:100B70002093A2010196B4010E94D708A8CFD80102
:100B800011962C911197213F31F612963C91B7E0C6
:100B9000EB9FF0011124EB5EFE4F20813213BBCF9F
:100BA000F8012481213C09F0B6CF0496E80FF91F23
:100BB00020814C5F80E090E0841708F4ADC02913D9
:100BC000AACF81E090E09093250180932401AD9617
:100BD0008FADAD9790912901981739F0AD968FADF3
:100BE000AD97809329010E949801AE968FADAE9784
:100BF00090912A01981739F0AE968FADAE978093F9
:100C00002A010E9498018091240190912501029768
:100C100009F0F0C0F8019581AD96AFADAD97E7E072
:100C2000EA9FD0011124AB5EBE4F11968C919813B0
:100C30001FC0AD968FADAD97E89FF0011124EB5E1C
:100C4000FE4FE281E00FF12FF11D8081AB968FAF57
:100C5000AB97AB968FADAB978A3020F08AE0AB961E
:100C60008FAFAB97FF2009F465C084E280932B011E
:100C7000D80115969C91AD96AFADAD97E7E0EA9F90
:100C8000D0011124AB5EBE4F14968C919813B2C064
:100C9000AD968FADAD97882309F461C0813009F41A
:100CA00074C0FF2009F4B2C0A7968EAD9FADA79780
:100CB000893B9B4008F49EC0B0923B01A0923A0150
:100CC000A9968EAD9FADA997A7962EAD3FADA797DC
:100CD000885C91098217930770F4A9968EAD9FAD39
:100CE000A997A7962EAD3FADA79788539F4F28177A
:100CF000390708F469C0A7968EAD9FADA797A9964E
:100D00009FAF8EAFA9978CE291E0909339018093C9
:100D1000380110922D016EC0F801E80FF11D3081ED
:100D2000930F8F5F49CFF801E80FF11D3081930FCA
:100D30008F5FD9C0AB969FADAB97AA968FADAA97A0
:100D4000981709F495CFAB968FADAB9780932B0195
:100D5000AB968FADAB97AA968FAFAA9789CFAD967A
:100D60008FADAD97E89FF0011124EB5EFE4F8581BA
:100D7000080F111DF8018081F4E68F9FC001112436
:100D8000A7969FAF8EAFA7978CCFAD968FADAD973F
:100D9000E89FF0011124EB5EFE4F8581080F111DC5
:100DA000D8016C9170E090E080E00E94DC0720E0C8
:100DB00030E04AE752E40E9442080E94AD07A7963D
:100DC0007FAF6EAFA7976DCF8091380190913901B9
:100DD000892B81F4A9968EAD9FADA9979093270199
:100DE000809326018FEF809328010E94900181E07B
:100DF00080932D0181E0AC968FAFAC97EFEFF0E7D9
:100E000022E0E150F0402040E1F78BCD80912601B7
:100E100090912701A7962EAD3FADA79728173907C8
:100E200008F477CF892B09F474CFE1CF8FEF92E5E7
:100E3000A7E081509040A040E1F700C00000809101
:100E4000240190912501892B09F0F4CC81E090E0F8
:100E50009093250180932401EDCC020F131FAD96D2
:100E6000EFADAD97D80113964C91842F90E09C0183
:100E70002B5F3F4F60912401709125016115710531
:100E800009F47DCE6330710508F045CED801119686
:100E90008C911197813F09F03ECE12969C91B7E05C
:100EA000EB9FF0011124EB5EFE4F8081981333CE4F
:100EB000D80114968C911497813609F02CCE159692
:100EC0009C9115978181981729F015969C918481A2
:100ED000981321CE21503109F801E20FF31F208130
:100EE0004C5F80E090E0841708F41DCF291313CEE7
:100EF00082E090E068CEDC01CB01FC01F999FECFE5
:100F000006C0F2BDE1BDF89A319600B40D92415091
:100F10005040B8F70895DC01A40FB51F4150504070
:100F200048F0CB01840F951F2E910E949C074150E1
:100F30005040D0F70895262FF999FECF92BD81BD7C
:100F4000F89A019700B4021639F01FBA20BD0FB607
:100F5000F894FA9AF99A0FBE08950E94210888F031
:100F60009F5798F0B92F9927B751B0F0E1F0660F6D
:100F7000771F881F991F1AF0BA95C9F714C0B130AE
:100F800091F00E943B08B1E008950C943B08672F54
:100F9000782F8827B85F39F0B93FCCF386957795DD
:100FA0006795B395D9F73EF49095809570956195C6
:100FB0007F4F8F4F9F4F0895E89409C097FB3EF4F1
:100FC00090958095709561957F4F8F4F9F4F992396
:100FD000A9F0F92F96E9BB279395F6958795779514
:100FE0006795B795F111F8CFFAF4BB0F11F460FFD4
:100FF0001BC06F5F7F4F8F4F9F4F16C0882311F02C
:1010000096E911C0772321F09EE8872F762F05C03F
:10101000662371F096E8862F70E060E02AF09A95DA
:10102000660F771F881FDAF7880F9695879597F9CF
:10103000089557FD9058440F551F59F05F3F71F0C8
:101040004795880F97FB991F61F09F3F79F087952F
:101050000895121613061406551FF2CF4695F1DFB8
:1010600008C0161617061806991FF1CF8695710548
:10107000610508940895E894BB2766277727CB017C
:1010800097F908950E9455080C94C6080E94B80864
:1010900038F00E94BF0820F0952311F00C94AF089F
:1010A0000C94B50811240C943C080E94190870F3A4
:1010B000959FC1F3950F50E0551F629FF001729FFD
:1010C000BB27F00DB11D639FAA27F00DB11DAA1F0C
:1010D000649F6627B00DA11D661F829F2227B00D59
:1010E000A11D621F739FB00DA11D621F839FA00DE4
:1010F000611D221F749F3327A00D611D231F849F34
:10110000600D211D822F762F6A2F11249F5750408A
:101110009AF0F1F088234AF0EE0FFF1FBB1F661F05
:10112000771F881F91505040A9F79E3F510580F0CE
:101130000C94AF080C943C085F3FE4F3983ED4F362
:10114000869577956795B795F795E7959F5FC1F772
:10115000FE2B880F911D9695879597F9089597F91D
:101160009F6780E870E060E008959FEF80EC08954D
:1011700000240A9416161706180609060895002476
:101180000A9412161306140605060895092E0394F0
:10119000000C11F4882352F0BB0F40F4BF2B11F464
:1011A00060FF04C06F5F7F4F8F4F9F4F089597FB85
:1011B000072E16F4009407D077FD09D00E94EB08A3
:1011C00007FC05D03EF4909581959F4F089570954A
:1011D00061957F4F0895AA1BBB1B51E107C0AA1F51
:1011E000BB1FA617B70710F0A61BB70B881F991FC8
:1011F0005A95A9F780959095BC01CD010895F89472
:02120000FFCF1E
:10120200B003008011F102210001B001008111F14F
:101212000081000004110B060009060012081A00E2
:0412220008110000AF
:00000001FF
